6000000008322101IVAN       MOSCOSO00560007800000058430899129S370000080000 
6000000063467607FLOR        OSORIO00000104000000413942014123S370000121000 
6000000035897387DEIBY         DIAZ00000104000000413310010858S370000320000 
6000000042652280EUFEMIA     TORRES00560007800000009183468941S370000064000 
6000000003644153JOSE     GUTIERREZ00560007800000099352026880S370000060000 
6000000010167372JUAN       SANCHEZ00560013300000000731269379S370000078000 
6000000000798951ROGELIO   GRIMALDO00000104000000413992035628S370000100000 
6000000013746242MARIA    CABALLERO00560013300000000084331677S370000240000 
6000001022122166ANGIE     QUINTERO00560007800000067257299705S370000116000 
6000000002759630GERMAN      SUAREZ00000104000000013180067188S370000064000 
6000000022244031NOAH         ARIAS00560007800000037126394242S370000220000 
6000000071370563MARTIN       LEMOS00560007800000067786671857S370000112000 
6000001036672369FANNY      MORALES00560007800000051186270936S370000070000 
6000000003671468JESUS        MARIN00000104000000413202003160S370000110000 
6000000021743599JHON    ECHAVARRIA00000104000000414282001951S370000062000 
6000000043345363BEATRIZ      RUEDA00560013300000000930002449S370000060000 
6000000021940448MARYURI     CHAVEZ00000104000000414302000602S370000110000 
6000000043346626OMAIRA  PIEDRAHITA00560013300000000930065081S370000110000 
6000000003551572SANTIAGO  BERMÚDEZ00000104000000414562000983S370000108000 
6000000011810044NEICY     PALACIOS00560007800000042071230109S370000160000 
6000000071971627ORLIDIS       DIAZ00560001000000000620052845S370000062000 
6000000008429386EDUARDO    PADILLA00560002300000210205074875S370000057000 
6000000043752635CLAUDIA HINESTROZA00560007800000000855051087S370000054000 
6000000070117021HERNAN       USUGA00560007800000000990214361S370000070000 
6000000043340686GLORIA     JIMENEZ00560013300000000930044607S370000060000 
6000000026330946CRUZ       LEDEZMA00000104000000013200057443S370000110000 
6000000015320690MARÍA        VAHOS00000128300000002401025741S370000072000 
6000000035896415CLAUDIA      RIVAS00560007800000064552774076S370000054000 
6000000003551278LUIS      CARDENAS00560007800000003147920127S370000054000 
6000000041781017MARIA      AGUIRRE00560007800000003146483715S370000054000 
6000000039282832ISRAEL     VERGARA00560013300000000271114316S370000190000 
6000000021939768AYLEM      CADAVID00560007800000031549854233S370000080000 
6000000022167005NARDELA     GARCIA00000104000000013180022095S370000054000 
6000000021926453MARIA     PULGARIN00560007800000009177220253S370000120000 
6000000012447502AULO       BADILLO00000104000000413030119498S370000070000 
6000000021816147ASTRID        VERA00000104000000414240051027S370000076000 
6000000011636424LUIS       MURILLO00560013300000000052303690S370000116000 
6000001045491870TIVISAY       DIAZ00560007800000095982968799S370000058000 
6000000043462690DEYASNID    FLÓREZ00560007800000067219084487S370000078000 
6000000011900920ELIGIO      CASTRO00560007800000010852574871S370000058000 
6000000043143726ELVIA       BEDOYA00560007800000053672258231S370000107000 
6000000025989876NATALIA     TEJADA00560013300000000271075970S370000096000 
6000000043649416GLORIA      ZAPATA00560013300000000729225441S370000054000 
6000001038094497MARIA        ROJAS00560007800000003126911357S370000096000 
6000000015048777JOSE         RAMOS00560013300000000271076168S370000080000 
6000000021815303YENNY     VALBUENA00000104000000414822019071S370000060000 
6000000022172987ALBA        ROLDAN00560013300000009300806120S370000060000 
6000001017132077TATIANA      LOPEZ00560007800000003641328463S370000060000 
6000000070116999LEON      GRISALES00560007800000041816555211S370000056000 
6000000021491417SIMÓN       GARCÍA00560007800000041892605708S370000140000 
6000000032275497FLOR          LEAL00560007800000064511677937S370000058000 
6000000050859711MELBA        AYAZO00000104000000413912003178S370000075000 
6000000011808597MICHELL HINESTROZA00560007800000010042635730S370000116000 
6000000039273092ELVIRA   SEPULVEDA00560007800000037143679170S370000080000 
6000000025775834DINA        MORENO00560007800000073947130525S370000140000 
6000000026688672LOURDES    MAESTRE00560013300000000084830538S370000120000 
6000000039272345BERTILDA    ROMERO00560013300000000271124265S370000090000 
6000000043346648JUAN       MONTOYA00560013300000000930096086S370000120000 
6000000043889336AURORA    MARTINEZ00000104000000414300004384S370000060000 
6000000021863114MARIA DEL  VANEGAS00560013300000000729206684S370000054000 
6000000015305925HOLMES     GALEANO00560013300000000271203663S370000100000 
6000000035603126MALLERIN     GOMEZ00560002300000230380142000S370000080000 
6000000082385464OSCAR     ASPRILLA00560007800000064536436837S370000114000 
6000000036269878LUZMILA    ARRIETA00560013300000000271119737S370000098000 
6000000042652077CELINA        MENA00560007800000009120154611S370000054000 
6000000043919342YOR        HERRERA00560007800000037125753591S370000060000 
6000000054259202ANA        CORDOBA00000104000000414760006008S370000080000 
6000000050895343LORENZA    NARVAEZ00560007800000009150704585S370000160000 
6000000043764837ADRIANA     LOAIZA00560007800000064518780300S370000080000 
6000000082362258EDISON       PEREA00560007800000073992320980S370000070000 
6000000004825954RAFAEL    MOSQUERA00560007800000073994563359S370000070000 
6000000025856252ELINA           DE00560007800000054060060803S370000160000 
