6000000008322101IVAN       MOSCOSO00560007800000058430899129S370000080000 
6000000063467607FLOR        OSORIO00000104000000413942014123S370000121000 
6000000042652280EUFEMIA     TORRES00560007800000009183468941S370000064000 
6000000003644153JOSE     GUTIERREZ00560007800000099352026880S370000060000 
6000000010167372JUAN       SANCHEZ00560013300000000731269379S370000078000 
6000001022122166ANGIE     QUINTERO00560007800000067257299705S370000116000 
6000000022244031NOAH         ARIAS00560007800000037126394242S370000220000 
6000000071370563MARTIN       LEMOS00560007800000067786671857S370000112000 
6000001036672369FANNY      MORALES00560007800000051186270936S370000070000 
6000000003671468JESUS        MARIN00000104000000413202003160S370000110000 
6000000043345363BEATRIZ      RUEDA00560013300000000930002449S370000060000 
6000000021940448MARYURI     CHAVEZ00000104000000414302000602S370000110000 
6000000043346626OMAIRA  PIEDRAHITA00560013300000000930065081S370000110000 
6000000003551572SANTIAGO  BERMÚDEZ00000104000000414562000983S370000108000 
6000000011810044NEICY     PALACIOS00560007800000042071230109S370000160000 
6000000071971627ORLIDIS       DIAZ00560001000000000620052845S370000062000 
6000000008429386EDUARDO    PADILLA00560002300000210205074875S370000057000 
6000000050895343LORENZA    NARVAEZ00560007800000009150704585S370000160000 
6000000043764837ADRIANA     LOAIZA00560007800000064518780300S370000080000 
